{
  "_format": "hh-sol-artifact-1",
  "contractName": "Counter",
  "sourceName": "contracts/Counter.sol",
  "abi": [
    {
      "inputs": [],
      "stateMutability": "nonpayable",
      "type": "constructor"
    },
    {
      "inputs": [],
      "name": "count",
      "outputs": [],
      "stateMutability": "nonpayable",
      "type": "function"
    },
    {
      "inputs": [],
      "name": "counter",
      "outputs": [
        {
          "internalType": "uint256",
          "name": "",
          "type": "uint256"
        }
      ],
      "stateMutability": "view",
      "type": "function"
    },
    {
      "inputs": [],
      "name": "owner",
      "outputs": [
        {
          "internalType": "address",
          "name": "",
          "type": "address"
        }
      ],
      "stateMutability": "view",
      "type": "function"
    }
  ],
  "bytecode": "0x608060405234801561001057600080fd5b506000808190555033600160006101000a81548173ffffffffffffffffffffffffffffffffffffffff021916908373ffffffffffffffffffffffffffffffffffffffff160217905550610305806100686000396000f3fe608060405234801561001057600080fd5b50600436106100415760003560e01c806306661abd1461004657806361bc221a146100505780638da5cb5b1461006e575b600080fd5b61004e61008c565b005b610058610133565b6040516100659190610178565b60405180910390f35b610076610139565b60405161008391906101d4565b60405180910390f35b600160009054906101000a900473ffffffffffffffffffffffffffffffffffffffff1673ffffffffffffffffffffffffffffffffffffffff163373ffffffffffffffffffffffffffffffffffffffff161461011c576040517f08c379a00000000000000000000000000000000000000000000000000000000081526004016101139061024c565b60405180910390fd5b600160005461012b919061029b565b600081905550565b60005481565b600160009054906101000a900473ffffffffffffffffffffffffffffffffffffffff1681565b6000819050919050565b6101728161015f565b82525050565b600060208201905061018d6000830184610169565b92915050565b600073ffffffffffffffffffffffffffffffffffffffff82169050919050565b60006101be82610193565b9050919050565b6101ce816101b3565b82525050565b60006020820190506101e960008301846101c5565b92915050565b600082825260208201905092915050565b7f4e6f74204f776e65720000000000000000000000000000000000000000000000600082015250565b60006102366009836101ef565b915061024182610200565b602082019050919050565b6000602082019050818103600083015261026581610229565b9050919050565b7f4e487b7100000000000000000000000000000000000000000000000000000000600052601160045260246000fd5b60006102a68261015f565b91506102b18361015f565b92508282019050808211156102c9576102c861026c565b5b9291505056fea2646970667358221220add4fba46469944141595bcde1dcbda101a2b70e59da09fab28011baf8e15a1b64736f6c63430008120033",
  "linkReferences": {},
  "deployedLinkReferences": {}
}